:020000040800F2
:10000000B0B00020A10200082B5A0008FB1E000817
:10001000295A00088D1B0008E96000080000000054
:1000200000000000000000000000000009020008BD
:10003000A51B0008000000004D020008795D0008C3
:10004000BB020008BB020008BB020008BB0200089C
:10005000BB020008BB020008BB020008BB0200088C
:10006000BB020008BB020008A91B0008BB02000875
:10007000BB020008BB020008BB020008BB0200086C
:10008000BB020008BB020008BB020008BB0200085C
:10009000BB020008BB020008BB020008BB0200084C
:1000A000BB020008BB020008BB020008BB0200083C
:1000B000BB020008DD5D0008BB020008BB020008AF
:1000C000BB020008BB020008BB020008BB0200081C
:1000D000BB0200084D5F0008BB020008BB0200081D
:1000E000BB020008BB020008BB020008BB020008FC
:1000F000BB020008BB020008BB020008BB020008EC
:10010000BB020008BB020008BB020008BB020008DB
:10011000BB020008BB020008BB020008BB020008CB
:10012000BB020008BB020008BB020008BB020008BB
:1001300000F002F800F058F80AA090E8000C8244A1
:100140008344AAF10107DA4501D100F04DF8AFF27E
:10015000090EBAE80F0013F0010F18BFFB1A43F0A5
:100160000103184724A2000044A20000103A24BF53
:1001700078C878C1FAD8520724BF30C830C144BF0C
:1001800004680C607047000000230024002500264E
:10019000103A28BF78C1FBD8520728BF30C148BFEA
:1001A0000B607047662908F0988403681B0A28BF13
:1001B00041F08001642900F0F180782900F0688125
:1001C000E42900F02781732900F06685002070473C
:1001D0001FB500F0CBFD04000020002108F0EAF874
:1001E000E0601FBD10B510BD00F0A6FE1146FFF780
:1001F000EFFF06F00BF800F0C4FE03B4FFF7F2FFC8
:1002000003BC05F08DFF0000224B19680868B0E8B8
:10021000F00F80F30988BFF36F8F4FF0000080F379
:1002200011884EF00D0E704700000000064800686F
:10023000006880F3088862B661B6BFF34F8FBFF3E2
:100240006F8F00DF00BF00BF08ED00E0EFF3098013
:10025000BFF36F8F0F4B1A6820E9F00F106008B5DD
:100260004FF0500080F31188BFF34F8FBFF36F8FB3
:1002700007F058FA4FF0000080F31188BDE80840FD
:1002800019680868B0E8F00F80F30988BFF36F8F32
:10029000704700BFAC000020EFF3058070470000FE
:1002A0000948804709480047FEE7FEE7FEE7FEE70A
:1002B000FEE7FEE7FEE7FEE7FEE7FEE70448054946
:1002C000054A064B704700008D5D000831010008AB
:1002D000B0AA0020B0B00020B0AC0020B0AC00202C
:1002E000704700000FB4044910B503AA029800F04B
:1002F000D7FC10BC5DF814FB7800002070B50446F4
:1003000085690068C10601D5302600E02026C007B7
:1003100007D070BDD4E9012130469047206A401CC7
:1003200020626D1EF6D570BD70B5044685690078F3
:10033000C00707D170BDD4E9012120209047206A71
:10034000401C20626D1EF6D570BD70B50C4605468A
:10035000012A05D02878800600D5EA69002302E04A
:10036000012305E05B1C934202D2E05C0028F9D136
:10037000A869E618C01AA861286A184428622846A5
:10038000FFF7BCFF04E0D5E9012114F8010B904709
:10039000B442F8D32846FFF7C7FF70BD2DE9F041FE
:1003A0000646002410687529314616A510D0AFF313
:1003B0000080002802DA404213A507E031688A076E
:1003C00001D512A502E0490704D511A5012401E0D9
:1003D000AFF3008000210A2206F1240709E0B0FBF8
:1003E000F2FCB0FBF2F302FB1C00303078541846EC
:1003F000491C0028F3D123462A463046BDE8F04187
:1004000000F0B8B9000000002D0000002B00000033
:10041000200000002DE9F0418046D21D22F00702A5
:100420000025D2E90002F52915A614D0011E72F1AB
:10043000000106DA0023D0EB030063EB020211A6F1
:1004400008E0D8F800108B0701D50FA602E0490795
:1004500001D50EA601251146002408F1240704E069
:1004600000F043F930323A55641C50EA0102F7D1EA
:100470002B46324621464046BDE8F04100F07AB9AD
:10048000000000002D0000002B00000020000000F4
:1004900070B504460D4621461068AFF300802188F0
:1004A000090502D50F4A7A4402E00E4A7A440E3218
:1004B000002104F1240305E000F00F060009965D19
:1004C0005E54491C0028F7D120780023000704D58A
:1004D000702D02D009B1022311322046BDE87040D0
:1004E00000F048B9229E00002DE9F0474FF0000AC5
:1004F00089460446C0F820A02046E16888470028C5
:1005000076D0252806D0D4E901219047206A401CE6
:100510002062F1E7E168204600268847C4F81CA065
:1005200005460027C4F818A02A2D09D0284605F052
:10053000F0FD38B304EB8708303DC8F8185019E0D7
:1005400059F8041B204604EB87029161E168884753
:10055000012F054618D1E069002820DA26F0200690
:100560001DE0D8F8180000EB800005EB40003038A3
:10057000C8F818002046E1688847054605F0C9FD1F
:100580000028EED1012F0AD02E2D08D12046E16897
:1005900088477F1C0546022F46F02006C4DBA06971
:1005A000002803DA404246F00106A061F00701D0BE
:1005B00026F010066C2D0AD0682D08D04C2D39D0AD
:1005C0006A2D35D0742D35D07A2D33D016E0E16800
:1005D0002F4620468847B84205460AD16C2F27D0BF
:1005E0004FF48060E168064320468847054605E0F1
:1005F00027E06C2F1AD04FF4807006430DB3A5F19D
:100600004100192802D8203546F400664A4629469A
:10061000204626604E46FFF7C5FD80B101280BD06D
:10062000F61D26F0070000F1080965E74020E4E721
:100630008020D7E70020D5E706F104095CE72846CB
:1006400061E7206ABDE8F087032A40F2308010F0AD
:10065000030C00F0158011F8013BBCF1020F62445D
:1006600098BF11F801CB00F8013B38BF11F8013BEE
:10067000A2F1040298BF00F801CB38BF00F8013B9B
:1006800011F0030300F01E83083AC0F0088051F80F
:10069000043B083A51F804CBA0E80810F5E7121D16
:1006A0005CBF51F8043B40F8043BAFF30080D20735
:1006B00024BF11F8013B11F801CB48BF11F8012B01
:1006C00024BF00F8013B00F801CB48BF00F8012B24
:1006D000704702F0FF0343EA032242EA024200F0BD
:1006E00025BB704770477047704730B5B0F10A02BC
:1006F0004FEA900E71F100034EEA817EB0EB0E00DE
:1007000061EB91014FEA101E4EEA017E10EB0E00E4
:1007100041EB11114FEA102E4EEA016E10EB0E0064
:1007200041EB11214FEA104E4EEA014E10EB0E0044
:1007300041EB1141401841F100014FEAD00040EA7D
:1007400041704FEAD10110EB80054FEA810444EA81
:10075000907444EB01046D1944EB0404521BA34153
:100760004FF0000348BF0A3200D530BD401C41F1B4
:10077000000130BD2DE9F0470D46994692460446EA
:1007800000F124080168880604D5E06921F0100111
:10079000216000E00120A84201DD471B00E00027A6
:1007A000A1697A1902EB0900081AA0612078C00635
:1007B00002D42046FFF7A2FD002608E0D4E901217B
:1007C0001AF806009047206A401C761C20624E45AD
:1007D000F4DB2078C0060AD52046FFF78FFD06E03F
:1007E000D4E9012130209047206A401C2062381E45
:1007F000A7F10107F4DC07E0D4E9012118F80500AE
:100800009047206A401C2062281EA5F10105F3DCF8
:100810002046FFF789FD2078000602D50220BDE8BA
:10082000F0870120FBE770472DE9FF4F0C461E467D
:100830004FF0FF378BB0D2E90001DDF860800A90FD
:100840008A46C1F30A5505B93D46002108464FF0D6
:100850000000BAF1000F00F4400005DA00EB800060
:100860004FF4400101EA50004FEA9059B9F1010FED
:1008700000DDB9460A9850EA4A000ED044F61050FE
:10088000A5F2FF3545432F14B8F1000F1ED0754275
:10089000291E1EDDC9F100021CE0B8F1010F4FF066
:1008A000000001D0302103E0F24305E02154401C58
:1008B000B042FBDB30460022002121540B99C1F8E5
:1008C0000880C1E900200FB0BDE8F08FBD1B6D1C92
:1008D000DEE74A4600DA694206A800F08BFA06AB6A
:1008E00093E8070003AB83E8070050460A9900F03D
:1008F00091FB8DE80700A0F500501F380090039889
:10090000002D0ADD42F21F014A460844002303A9D4
:100910000390684600F0FAFD09E0A0F500504A4651
:100920001F38002303A90390684600F004FE8DE8F9
:1009300007000004000C03D04FF0FF30410800E036
:100940001046B8F1000F03D00022009215461EE0B9
:10095000751E05D4FFF7C9FE303262556D1EF9D5FC
:10096000B3460122084302D000227F1C04E0207815
:10097000302801D100227F1E002A099784D01DE073
:10098000112D07DAFFF7B1FE303262556D1C50EAC7
:100990000102F5D1084302D00098C8B10EE0002151
:1009A000681E05E0235C625C63542254401E491CAF
:1009B0008142F7DBAB46A81B401E0990002004F8DB
:1009C0000B000B98099AC0F80880C0E9002B7AE761
:1009D00011264FF0000857E72DE9F04F88460446EE
:1009E000D21D22F0070191B0D1E90001CDE90A0141
:1009F00005F07BFB02460B98C00F01D02D2007E0CD
:100A00002068810701D52B2002E0202101EAC000E7
:100A1000032A099001D0072A05DB034641462046F8
:100A200000F0A8F90BE12078800601D5E06900E02C
:100A30000620B8F1650F814606D0B8F1660F18D0D0
:100A4000B8F1670F70D131E00020B9F1110F0090BB
:100A500001DB112301E009F101030AAA01A90CA895
:100A6000FFF7E2FEDDE90C70002609F1010583467F
:100A700047E001204B4600904FF000470AAA01A929
:100A80000CA8FFF7D1FEDDE90DB00C995D460026FC
:100A900010B909F101000D18B9EB050003D4C0F13C
:100AA000FF3609F10105A5EB09002BE0B9F1010FB3
:100AB00001DA4FF001090020B9F1110F009048460A
:100AC00001DD112300E003460AAA01A90CA8FFF7E3
:100AD000ABFEDDE90C704D4600268346207800070A
:100AE0000AD4AB4500DA5D4601A8012D04DD4119A9
:100AF00011F8011C302907D04F4502DA17F1040F15
:100B000004DA012082460FE06D1EEEE7002F02DCC2
:100B1000ED1B3E4403E0781CA84200DD7D1CB81BA1
:100B200000F1010A4FF000472078000703D4AA45DE
:100B300001DB4FF0FF3A0021B7F1004F0DF1430800
:100B40008DF8431024D002202B23002F01DA7F429E
:100B50002D230A21021EA0F1010000DC5FB197FBEA
:100B6000F1FC97FBF1F201FB1C7C17460CF1300CF9
:100B700008F801CDEEE7A8F101000370218809050E
:100B800001D5452100E06521A0F1010800F8011C14
:100B900009980FA9A1EB0807FF1D00B10120411919
:100BA00001EBEA70A1693844081A401EA061207860
:100BB000C00602D42046FFF7A1FB099828B1D4E96A
:100BC00001219047206A401C20622078C00622D56F
:100BD0002046FFF793FB1EE0002E04DBB34502DD49
:100BE00001A8805D00E03020D4E901219047206A0F
:100BF000401C2062761CAAF101005FEA000A0AD1BB
:100C000000F0B4F8C0680168405CD4E90121904765
:100C1000206A401C2062281EA5F10105DCDC07E0EB
:100C2000D4E9012118F8010B9047206A401C20628A
:100C3000381EA7F10107F3DC2046FFF775FB032000
:100C400011B041E601694A1C02610878704700B59D
:100C50008FB0CDE901310021059105497944CDE9F5
:100C6000031011466846FFF73FFC0FB000BD0000BF
:100C7000E5FFFFFF10B5436913B1AFF3008001E05A
:100C8000FFF763FB012010BD127800F124010A7008
:100C900000224A700122EDE711684FF0FF32E9E7C8
:100CA000074B70B50D467B44FFF7D1FF044628463D
:100CB00000F012F910B14FF0FF3070BD204670BD4A
:100CC0004B55000010B5203AC0F00B80B1E8185029
:100CD000203AA0E81850B1E81850A0E81850BFF426
:100CE000F5AF5FEA027C24BFB1E81850A0E81850C5
:100CF00044BF18C918C0BDE810405FEA827C24BF19
:100D000051F8043B40F8043B08BF7047D20728BFA6
:100D100031F8023B48BF11F8012B28BF20F8023BF5
:100D200048BF00F8012B70474FF000020429C0F0C3
:100D3000128010F0030C00F0D580CCF1040CBCF153
:100D4000020F18BF00F8012BA8BF20F8022BA1EB5F
:100D50000C0100F0C7B85FEAC17C24BF00F8012B8A
:100D600000F8012B48BF00F8012B7047004870477E
:100D70006CAA00202DE9F0411F46044603260168B5
:100D8000072A01F4006004DB08B116A505E016A5EA
:100D900003E008B115A500E015A521F010002060C2
:100DA000A069C01EA0610FB1401EA0612046FFF7E0
:100DB000A5FA4FB1D4E9012138469047206A401C7A
:100DC0002062C01C206206E0206AFAE7D4E9012113
:100DD00015F8010B9047761EF8D22046FFF7A4FACB
:100DE000BDE8F0814E414E006E616E00494E4600F6
:100DF000696E66002DE9F047814616468AB035488F
:100E000078440DC88DE80D0032487844801C03AC4E
:100E10000DC884E80D0041F69B300844372190FB53
:100E2000F1F290FBF1F5A5F1800501FB12041B3CEA
:100E300002D56442012000E00020DFF898A080463F
:100E40000027FA44AAF1BE0A0EE0E0070AD03246B3
:100E5000684607EB470101230AEB810100F06BFBB9
:100E60008DE8070064107F1C002CEED1194F7F44E1
:100E7000AE3F19E0E80715D007EB04100DF1180A92
:100E800090E80E008AE80E00C068F04201D198197F
:100E900008903246012306A903A800F04CFB03ABDF
:100EA00083E807006D10641C002DE3D14FF00103AF
:100EB00032466946B8F1000F03A802D000F026FBC5
:100EC00001E000F038FBC9E90001C9F808200AB0C8
:100ED000BDE8F0876C950000007B00F08000704753
:100EE0004FF0000200B5134694469646203922BFC3
:100EF000A0E80C50A0E80C50B1F12001BFF4F7AF0E
:100F0000090728BFA0E80C5048BF0CC05DF804EBEF
:100F1000890028BF40F8042B08BF704748BF20F85D
:100F2000022B11F0804F18BF00F8012B7047000012
:100F3000004870474CAA00207546FFF7F9FFAE46FF
:100F400005006946534620F00700854618B020B5D5
:100F5000FFF7B4F9BDE820404FF000064FF000075E
:100F60004FF000084FF0000B21F00701AC46ACE851
:100F7000C009ACE8C009ACE8C009ACE8C0098D46BE
:100F8000704710B50446AFF300802046BDE810401E
:100F9000FFF733B94FF0013C50F8042B51F8043BF4
:100FA0009A4221D1A2EB0C03934313EACC1317D13D
:100FB00050F8042B51F8043B9A4215D1A2EB0C03D4
:100FC000934313EACC130BD150F8042B51F8043B94
:100FD0009A4209D1A2EB0C03934313EACC13DBD062
:100FE0004FF00000704700BFD01A01BAB1FA81F18A
:100FF00001F0180122FA01F0CB40C1F12001DBB26F
:10100000C0B2C01A2CFA01F3D11A914311EAC311EC
:10101000E6D170475FEA400C08BF91F0000F4FEA3D
:101020008C234FEAC12243EA51514FEA1C5018BFAA
:1010300000F5F0404FEA300018BF41F000415FEA90
:101040006C5C00F02980BCF1FF3F08BF40F080409D
:101050007047130C06BF12044FF0100C4FF0000C39
:10106000130E04BF12020CF1080C130F04BF12017F
:101070000CF1040C930F04BF92000CF1020CD30F7F
:1010800004BF52000CF1010C11464FF00002A0F118
:101090001F00A0EB0C00704711F0004F08BF704715
:1010A00031F000413FF4D5AF0B0C06BF09044FF0FF
:1010B000100C4FF0000C0B0E04BF09020CF1080CD1
:1010C0000B0F04BF09010CF1040C8B0F04BF890046
:1010D0000CF1020CCB0F04BF49000CF1010CCCF158
:1010E0002003A0EB0C0022FA03F302FA0CF241EA0F
:1010F000030100F10100704720F07F4C80EA0300FB
:1011000023F07F47ACEB070303F57C5300F000406E
:1011100003F1FF032DE980494FEA154B09B44FEA6B
:10112000144325EA0B4E24EA03480FF2042606EB8B
:10113000132749083E785FEA320203FB0667C7F5CA
:10114000000707FB06F64FEA54374FEAD64606F18A
:10115000020607FB066CCCF1005C4FEA1C472CEA48
:10116000074C07FB06F40CFB06F504EB15464FEAAB
:10117000961634BF00204FF000404FEAD13706FBEF
:1011800007FC4FEA1C4C0CFB0BF7D21B03FB0CF7C4
:1011900061EB07010CFB0EF7B0EB074072EB174257
:1011A0000CFB08F734BFA2EB0742B2EB074261EB3E
:1011B00017414FEA0C444FEA910706FB07FC4FEA40
:1011C0001C4C0CFB0BF7B0EBC74072EB573203FB28
:1011D0000CF734BFA2EBC742B2EBC74261EB573109
:1011E0000CFB0EF7B0EBC70072EB57720CFB08F765
:1011F00034BFA2EBC702B2EBC70261EB5771039F8A
:101200004FEA816141EA921104EBCC044FEAD137F5
:101210004FEA826206FB07FC42EA90124FEA8060C6
:101220004FEA1C4C0CFB0BF7D21B03FB0CF761EBDA
:1012300007010CFB0EF7B0EB074072EB17420CFBFB
:1012400008F734BFA2EB0742B2EB074261EB17414C
:101250004FEA8C554FEA910704EB9C2406FB07FCF0
:101260004FEA1C4C0CFB0BF7B0EBC74072EB57324C
:1012700003FB0CF734BFA2EBC742B2EBC74261EBF2
:1012800057310CFB0EF7B0EBC70072EB57720CFB3B
:1012900008F734BFA2EBC702B2EBC70261EB57718C
:1012A00015EB4C254FEA816141EA92114FEA8262C7
:1012B0004FEAD13742EA901206FB07FC44F10004E2
:1012C0004FEA80604FEA1C4C0CFB0BF7D21B03FB70
:1012D0000CF761EB07010CFB0EF7B0EB074072EB6C
:1012E00017420CFB08F734BFA2EB0742B2EB0742F0
:1012F00061EB174115EB1C154FEA813141EA924130
:101300004FEA823242EA90424FEA80304FEA0C764E
:1013100044F1000448EA03434EEA0B484FF0000E44
:10132000B2EB080C71EB030724BF624639464EEB63
:101330000E0E4FF0000B0018524149414BEB0B0BC6
:10134000B2EB080C71EB03077BF1000B24BF624684
:1013500039464EEB0E0E4FF0000B0018524149413A
:101360004BEB0B0BB2EB080C71EB03077BF1000BA3
:1013700024BF624639464EEB0E0E51EA020718BFF3
:1013800046F0010616EB0E7655F1000254F100010D
:1013900003D5BDE88901BDE80088BDE88901BDE845
:1013A0000048B619524141EB0101A3F10103704716
:1013B00080807F7E7D7C7B7A797877767675747392
:1013C000727171706F6E6E6D6C6C6B6A6A69686851
:1013D000676666656464636362616160605F5F5EE7
:1013E0005E5D5D5C5C5B5B5A5A595958585757565D
:1013F00056555555545453535252525151505050C2
:101400004F4F4F4E4E4D4D4D4C4C4C4B4B4B4A4A13
:101410004A49494948484847474747464646454557
:101420004544444444434343434242424241414190
:10143000002B9C4630D477002BD01CB54FEA3707E1
:1014400003B44FF010004FF01001BAF1000F06D0B6
:10145000BCF1000FDCBF40F0080040F008014FF085
:1014600000000FBCBDE810400BF1010BBBF1010FF8
:1014700008BF5FEA170722BF12F1010211F1010153
:101480004FF0004143F1000300F0004043EA000048
:101490007047F9D35708D0E746EA064613F1400FE4
:1014A0004FEA16461FDD13F1200FDFBF16430A4631
:1014B000002120335B42BED0C3F1200746EA064636
:1014C00002FA07F74FEA164646EA0706C3F1200775
:1014D00022FA03F201FA07F721FA03F14FF00003B1
:1014E00042EA0702A7E746EA020646EA06464FEA4C
:1014F000164646EA0106BCBF46EA0646360C4FF0E1
:1015000000034FF000024FF0000194E72DE9804CFA
:101510009A46934670B491E8380007C831EA400C07
:1015200048BF34EA430C03D5FFF7E6FDFFF780FF21
:10153000F0BCBDE8008C2DE9804C9A46934670B40F
:1015400091E8380007C810F0804F08BF13F0804FB3
:1015500003D100F005F8FFF76BFFF0BCBDE8008C8D
:1015600020F07F4780EA030023F07F4C07EB0C0359
:10157000A3F57C5300F00040A3F1FE0392F0000FAE
:1015800000F0B38095F0000F00F077802DE901495D
:101590004FEA11404FEA144621EA004800FB06FCDE
:1015A00024EA064708FB06F607FB08F800FB07F7E6
:1015B00018EB06484CEB164C4FEA124B18EB074859
:1015C0004FEA15464CEB174022EA0B4E0BFB06FC8C
:1015D00025EA06470EFB06F607FB0EFE0BFB07F798
:1015E0001EEB064E4CEB164C4FF000061EEB074E62
:1015F0004CEB174B18EB0B0840F1000018EB0E0BEF
:1016000058EB000840F100008F1A4FF000013CBF7A
:10161000C943661B14BFB5EB040C00213CBFC94392
:10162000F61B4FEA17444EEA8E0E27EA04454FEAAE
:101630001C4704FB07622CEA074C05FB07F70CFB71
:1016400005F604FB0CFC16EB074642EB174216EBC3
:101650000C4642EB1C421BEB060658EB02024141D2
:1016600046EA9E0601D5BDE80189B619524141EB13
:101670000101A3F10103BDE801894FEA14454FEAD6
:10168000114724EA054621EA074C05FB07F406FB4F
:1016900007F70CFB06F105FB0CFC11EB074144EBD3
:1016A00017444FEA124711EB0C4144EB1C4422EA69
:1016B000074C05FB07F206FB07F70CFB06F605FBDC
:1016C0000CFC16EB074642EB174216EB0C4642EBBE
:1016D0001C456A1854F1000148BF7047B6195241C1
:1016E00041EB0101A3F10103704795F0000F37D0E2
:1016F0004FEA11424FEA144721EA024624EA074C16
:1017000002FB07F106FB07F70CFB06F402FB0CFCDF
:1017100014EB074441EB17414FEA154714EB0C4417
:1017200041EB1C4125EA074C02FB07F506FB07F7D6
:101730000CFB06F602FB0CFC16EB074645EB1745C7
:1017400016EB0C4645EB1C42121951F1000148BF43
:101750007047B619524141EB0101A3F101037047F3
:101760004FEA14454FEA114724EA054621EA074C9F
:1017700005FB07F106FB07F70CFB06F24FF000062E
:1017800005FB0CFC12EB074241EB174112EB0C423C
:1017900051EB1C4148BF7047921841EB0101A3F186
:1017A000010370470029816802D041F0010101E086
:1017B00021F00101816070470D4910B5884202D1C6
:1017C000012144150AE00B49884202D10121041588
:1017D00004E0094988420AD10121CC03204604F0E3
:1017E00015FA2046BDE81040002104F00FBA10BDE4
:1017F0000024014000280140003C01400146002037
:101800008968490700D501207047C06C80B27047D5
:101810000246002012680A4200D0012070470146AB
:1018200000208968090700D50120704710B542687B
:101830000E4B0C791A400B6842EA042213434360B2
:1018400082680B4B1A40D1E9024323434C7942EAA8
:10185000440213438360C26A097C22F47002491E69
:10186000C9B242EA0151C16210BD0000FFFEF0FFA3
:10187000FDF7F1FF70B5072609290AD9C568A1F15E
:101880000A0404EB4404A640B543A3401D43C560CD
:1018900007E0056901EB4104A640B543A3401D43A1
:1018A00005611F23072A09D2446B521E02EB8202F4
:1018B00093409C4391400C43446370BD0D2A09D270
:1018C000046BD21F02EB820293409C4391400C4375
:1018D000046370BDC46A0D3A02EB820293409C43DC
:1018E00091400C43C46270BD816841F00801816081
:1018F00070470029816802D041F4A00101E021F481
:10190000A00181607047816841F0040181607047E7
:1019100000F014BB70B515460E46044608E020469C
:10192000641CA4B200F007F86D1E06F8010BADB2FE
:10193000002DF4D170BD10B5044600F09FFB200AC5
:10194000A02101EB4000C0B200F068FB00F0D8FB22
:10195000E0B200F063FB00F0D3FB00F08FFBA120AE
:1019600000F05CFB00F0CCFB002000F021FB044603
:1019700000F0A4FB204610BD70B514460D46064687
:1019800006E02978304600F007F8761CB6B26D1CE8
:10199000641EA4B2F5D270BD70B50D46044600F0C9
:1019A0006DFB200AA02101EB4000C0B200F036FB25
:1019B00000F0A6FBE0B200F031FB00F0A1FB2846EE
:1019C00000F02CFB00F09CFB00F078FBBDE87040C1
:1019D0000A2004F0CBBB000030B587B001214FF4E2
:1019E000017004F007F94FF4004004F0E1F8022020
:1019F000ADF8140000248DF8174005A9164800F032
:101A0000F1F9164D2846FFF7D7FE4FF46020CDE9D7
:101A1000020401208DF804408DF8100000948DF828
:101A2000054069462846FFF701FF01212846FFF7D8
:101A3000B9FE2846FFF758FF2846FFF7F0FE0028BA
:101A4000FAD12846FFF75FFF2846FFF7D7FE0028A8
:101A5000FAD107B030BD0000000801400024014069
:101A600010B51B4C88B0802120780323401CC2B2E3
:101A700022701020CDE900016F21462003F056FFAF
:101A800020780E21B0FBF1F201FB120004F12001DD
:101A900040F2391331F82000722280B20090832185
:101AA000062000F0A1FD0B49D1F8940168B1002097
:101AB000C1F89401152202A90020FFF72BFF02A90B
:101AC00005A0FEF70FFC08B010BD0120F0E70000F4
:101AD00000000020000023424154323443303220C1
:101AE00053746F726520646174612069733A257361
:101AF0000D0A000009488178094B491CC9B2817060
:101B0000D3F894213AB10022C3F894218269C369C1
:101B100004A0FEF7E7BB0122F6E70000000000206A
:101B2000008021424175746F7465737454696D65EA
:101B3000725F5461736B206E756D2069732025642C
:101B40002C73797374656D74696D653D256C6C6477
:101B50000D0A000038B50121082004F04BF84FF4BD
:101B60008074ADF8004010208DF803000320064D6E
:101B70008DF802006946284600F034F921462846CF
:101B800000F085F938BD0000000C0140FEE70000C0
:101B900003480022026042604721312004F038B936
:101BA000180000207047000010B5142004F014FB4A
:101BB00010210D4800F064F980B90C48006806F067
:101BC000E7FA04460AA0FEF78DFB012C06D10D4969
:101BD00020070860BFF34F8FBFF36F8FBDE8104041
:101BE000102000F039B80000001801400800002063
:101BF000BBD6B8B4C8CECEF132B5C4D4CBD0D02188
:101C00000D0A000004ED00E03EB500F0A5FA012148
:101C1000084603F0EFFF0421084600F0CFF810203B
:101C2000002500908DF804500C208DF8050001244B
:101C30008DF80640684600F015F80A208DF8080077
:101C400006208DF809008DF80A508DF80B4002A887
:101C500003F0ECFE3EBD0000014908607047000043
:101C60001404014030B51A4A8379016853B31368EC
:101C70008B431360111D0B680468A3430B6001794B
:101C800011440B68046823430B60114B0833196837
:101C90000468A14319601C1D21680568A9432160DF
:101CA0004179102905D011440A68006802430A608E
:101CB00030BD19680268114319602168006801434A
:101CC000216030BD0079104402688A43026030BD53
:101CD000000401408000A0F1C0400029016802D04A
:101CE00041F0010101E0024A11400160704700002B
:101CF000FEFF0F0010B5D0E901121143D0E9032314
:101D00001A4311434269114382691143C269114365
:101D1000026A1143426A1143826A1143C26A114343
:101D2000026B114302689200A2F1C0421160816807
:101D3000082907D101688900A1F1C0410A6842F071
:101D400040020A60416BD1E9002342EA03128B682A
:101D50008C891B0243EA04431A430B8A42EA03526A
:101D60000B7D896942EA03620A4301688900A1F197
:101D7000C0414A60C16AB1F5804F08D000686FF079
:101D800070418000A0F1C040C0F8041110BD816B0B
:101D9000D1E9002342EA03128B680C8A1B0243EA52
:101DA00004531A430B7D896942EA036200680A43BF
:101DB0008000A0F1C040C0F8042110BD10B58A0712
:101DC00021F003040649120F21440F238C6893402D
:101DD0009C438C608B68904003438B6010BD000077
:101DE00000000140F0B5CC78002204F00F03E406B7
:101DF00001D58C7823430C784FF00F0C14F0FF0FB3
:101E00004FF0010E1BD005680E880EFA02F4264032
:101E1000A64210D196000CFA06F725EA070703FA46
:101E200006F5CE783D43282E02D0482E02D002E09F
:101E3000446100E00461521C082AE5D305600A8869
:101E4000FF2A1CD94468002202F108060EFA06F5A2
:101E50000E882E40AE420ED196000CFA06F7BC4317
:101E600003FA06F7CE783C43282E00D14561CE78A0
:101E7000482E00D10561521C082AE5D34460F0BD0C
:101E80000246002092680A4200D00120704741615A
:101E9000704701617047000010B50B4C01460723E5
:101EA00001222046FFF7E6FC01212046FFF721FD35
:101EB00002212046FFF7ACFC0028F9D02046BDE8FF
:101EC0001040FFF7A2BC0000002401402DE9F041C2
:101ED00000250E4607462C4608E03846FFF7DCFF93
:101EE0000544052004F042F9641CE4B2B442F4D382
:101EF000B5FBF6F080B2BDE8F081FEE770B50D4CA1
:101F00000025C4F898510C48016821F07041016027
:101F1000016841F040510160C4F89C51022004F571
:101F2000CC7404F03FF901202060022004F03AF95B
:101F3000256070BD00802142000C014038B50121B0
:101F4000082003F057FEC020ADF8000010208DF8E7
:101F500003000320054C8DF8020069462046FFF778
:101F600041FFC0212046FFF794FF38BD000C01401F
:101F700070B50D4C0026C4F898610C48016821F03A
:101F800070410160016841F0405101600125C4F8D1
:101F90009C51022004F5CC7404F004F92560022061
:101FA00004F000F9266070BD00802142000C014061
:101FB0002DE9F047814617480024016821F070415F
:101FC0000160016841F000410160134E254627463B
:101FD0004FF00108C6F89871022004F0E3F8C6F843
:101FE00098816006040ED6F81C0108B1641CE4B2A6
:101FF000012004F0D7F86D1CEDB2082DEAD3B9F139
:10200000000F04D0FFF77AFF2046BDE8F087FFF706
:10201000AFFFF9E7000C0140008021422DE9F041BB
:1020200005461448016821F070410160016841F0E3
:1020300040510160104E0027C6F898713C464FF0A1
:102040000108E809C6F89C016806050E022004F0A4
:10205000A9F8C6F89881022004F0A4F8C6F898718F
:10206000022004F09FF8641CE4B2082CE9D3BDE818
:10207000F0810000000C01400080214270B50D4845
:10208000016821F070410160016841F04051016038
:10209000094C0120C4F89C01C4F89801042004F5FF
:1020A000CC7404F07FF800256560042004F07AF811
:1020B000256070BD000C0140008021420E4810B523
:1020C000016821F070410160016841F040510160F8
:1020D0000A4C0020C4F89801C4F89C01042004F5BF
:1020E000CC7404F05FF8012020606060BDE810400F
:1020F000042004F057B80000000C01400080214289
:1021000070B513480024016821F070410160016836
:1021100041F0004101600F4D0126C5F89C61304639
:1021200004F040F8C5F89861012004F03BF807E09E
:10213000641CE4B2FA2C03D9FFF7C0FF012070BD84
:10214000D5F81C010028F3D1C5F8980170BD000036
:10215000000C01400080214208B50121442003F019
:1021600049FD1820ADF8000048208DF803006946AD
:102170000648FFF737FE0120ADF8000028208DF853
:10218000030069460248FFF72DFE08BD0018014014
:10219000000801402DE9F041254C264F264D01262F
:1021A00008B1267001E0207878B110212846FFF7A9
:1021B00067FE88B108212846FFF762FE60B1012161
:1021C0003846FFF75DFE012806D010212846FFF7AC
:1021D00057FE01281DD028E00A2003F0C7FF002089
:1021E000207010212846FFF74BFE58B108212846E1
:1021F000FFF746FE48B101213846FFF741FE0128AE
:1022000005D012E00120BDE8F0810220FBE70320A9
:10221000F9E708212846FFF733FE012805D10121FF
:102220003846FFF72DFE00B926700020EBE70000CE
:102230007000002000080140001801402DE9F04323
:10224000174F0646002438887D884543B888A0F596
:10225000D041043902D1B879012807D000210846BD
:1022600003F030FA03F0A6FB0E4815E00020B87129
:102270004FF02A09A7F80A904FF02B08A7F80C8016
:10228000014603F01FFA0120B871A7F80A80A7F8E9
:102290000C90E7E70680641CAC42FBD3BDE8F083FA
:1022A000280100200008006C2DE9F04F4A492A233C
:1022B0002B24898845F2105A4FF4305B4FF4285E86
:1022C0004FF448754FF0F00C49F241394FF4A077C4
:1022D00045F210364FF4F07280B13F484FF00108DC
:1022E000494580F806800780A0F802C001D0B142BD
:1022F0003ED12C2505814381848157E036484FF03B
:102300000008494580F80680A0F800C0478006D044
:10231000A1F5D04CBCF1040C01D0B1420CD12C255C
:1023200005814381A1F5D0438481043B01D0B142B2
:1023300044D10780428041E0514507D1A0F808B060
:10234000A0F80AE04FF42C5181810EE0A1F5C856A7
:10235000633E06D0222101812021418121218181FA
:102360002CE02C210181448183810280458025E07D
:10237000A1F5D04CBCF1040C09D051450BD1A0F80B
:1023800008B0A0F80AE04FF42C53838121E02C25FB
:102390000581448109E0A1F5C85CBCF1630C12D051
:1023A000222303812123438120238381A1F5D0436C
:1023B000043B01D0B14201D102804780BDE8F04F1B
:1023C000002003F0ABB84FF02C0CA0F808C04381FC
:1023D000848105804280E9E7280100202DE9FE4F35
:1023E0000026A2EB000882465F1A701E3546894619
:1023F000B8F1000F02DD4FF0010102E003D14FF010
:102400000001019102E0C8F100080190002F02DDF7
:102410004FF0010002E003D14FF00000009002E015
:10242000C7F1000700904046B84501DD044600E0D2
:102430003C46601C4FF0000B029015E01FFA89F13A
:102440001FFA8AF000F016F846443D44A64202DD29
:102450000199361B8A44A54202DD00992D1B89444F
:102460000BF101001FFA80FB02998B45E6DDBDE808
:10247000FE8F000000B503F025F903F09BFA024837
:1024800002490088088000BD6C0000200008006C34
:10249000F0B51C4615460E4607460B46FFF79EFF55
:1024A0003A46234631461046FFF798FF23462A4610
:1024B00019463846FFF792FF2A4623463146BDE8C3
:1024C000F0401046FFF78ABF2DE9F04FDFF810818A
:1024D000934642460B46B8F804500C0ADFF804A1B4
:1024E0009189060A5289A5F513470AF10209413F6D
:1024F00019D0A5F5A647103F15D0A5F5AA47103F5E
:102500001CD04746A5F5C85CBE793F883F1A7F1EA0
:10251000BCF1630C27D0A5F5D04CBCF1040C3AD02B
:10252000012E4AD04AE0AAF800204A46A9F80060E5
:10253000C0B2A9F80000AAF800103AE0AAF80020FA
:10254000A9F80060521CAAF80020C0B2A9F8000047
:10255000AAF80010A9F80040491CAAF80010D8B247
:10256000A9F8000033E006B9B8B2AAF80020050ABD
:102570004A46A9F80050C7B2A9F80070A9F800505F
:10258000C0B2A9F80000AAF80010A9F80040D8B21B
:10259000A9F800000DE0012E00D1B8B2AAF8002081
:1025A000050A4A46A9F80050C0B2A9F80000AAF8E6
:1025B00000101480D8B2108009E0B8B2014610466D
:1025C00003F002FAB8F80C00194603F0FDF9B8F868
:1025D0000810AAF80010A9F800B0BDE8F08F0000BC
:1025E00028010020FE07006C2DE9F8431F4D1F460F
:1025F0008046AB88089EA3F5D040043802D1A87964
:10260000012807D0A2EB0800401C85B20C46DFF879
:10261000609028E02B880846991A0024AC713A464D
:102620002A24A3EB08036C812B27491E5B1EAF8174
:1026300089B29BB20096FFF7D7FF0120A8716F8186
:10264000AC81BDE8F8832146404603F03BF803F037
:10265000B1F90020494602E00E80401C80B2A84239
:10266000FAD3641CA4B2BC42EDD9EAE728010020E9
:102670000008006C2DE9F04F01210E029FB030469A
:1026800003F0A0FA01214FF4B47003F0B3FA01276C
:10269000ADF83C704FF010088DF83F8003248DF8A2
:1026A0003E400FA9FE48FFF79DFB4CF23370ADF89A
:1026B0003C0018258DF83F508DF83E400FA9F94891
:1026C000FFF790FB4FF68070ADF83C008DF83F505F
:1026D0008DF83E400FA9F448FFF784FB41F201005A
:1026E000ADF83C008DF83F508DF83E400FA9EF4803
:1026F000FFF778FB00200F21CDE918011A901B90FD
:102700001C901D901090CDE91104CDE9160714908E
:1027100006211590CDE90010CDE902081390049030
:102720003101CDE908010690059007908900CDE9B7
:102730000A010C9017A80D9010A80E906846FFF79C
:10274000D9FA01210620FFF7C5FA322003F00EFD69
:10275000002002F0B9FED64DD64C49F24139A8808E
:1027600046F6040A45F2103B45F210574FF6FF7843
:10277000FF2804D3404502D0B0F5134F70D1D320C9
:10278000208002F097FEA88002F094FEA88002F05C
:1027900091FE08EA00204146A88002F08BFEAA883C
:1027A0001043A88048455BD0BF20208002F082FE05
:1027B000A88002F07FFEA88002F07CFEA88002F0D4
:1027C00079FE01EA0020A88002F074FEAA88104376
:1027D000A880504544D0D420208002F06BFEA88011
:1027E00002F068FEA88002F065FE01EA0020A880E1
:1027F00002F060FEAA881043A880584530D04FF4FC
:102800005A40208002F056FEA8804FF45B402080A2
:1028100002F050FE01EA0020A8804FF45C402080C6
:1028200002F048FEAA881043A880B0F5004F7DD082
:10283000B84215D0A120208002F03CFEA88002F012
:1028400039FE01EA0020A88002F034FEA98808437E
:10285000A0F5AE41A880613902D141F66310A8808D
:10286000A98895A0FDF73EFDA888924DAD1C48456E
:102870007ED1CF20208000202880C12028803020D9
:102880002880ED20208064202880032028801220CA
:10289000288081202880E820208085202880102022
:1028A00028807A202880CB202080392028802C2066
:1028B0002880002028803420288002202880F720CB
:1028C000208020202880EA20208000202880288066
:1028D000C02020801B202880C1202080012028804B
:1028E000C5202080302028802880C7202080B72065
:1028F000288036202080482028803A2020805520BB
:102900002880B1202080002028801A202880B6202E
:1029100020800A202880A2202880F2202080002009
:102920002880262020800120288000E051E0E0203F
:1029300020800F2028802A20288028202880082016
:1029400028800E2028800820288054202880A92054
:102950002880432028800A2028800F2028800020FB
:102960002880288028802880E1202080002000E026
:1029700031E0288015202880172028800720288013
:1029800011202880062028802B202880562028808F
:102990003C20288005202880102028800F202880B7
:1029A0003F20288028800F2028802B202080002096
:1029B00028802880012028803F2028802A2020800D
:1029C0000020288028802880EF2028801120208067
:1029D00084E0AF8044E7504576D111202080142058
:1029E00003F0C4FBD02020800720288042202880CC
:1029F0001D202880D1202080002028801A202880B7
:102A000009202880D22020800120288022202880B0
:102A1000C0202080102028803B2028800020288093
:102A20000220288011202880C520208003202880B3
:102A3000C820208000202880252028802120288070
:102A400005202880002028800A20288065202880F2
:102A50002520288077202880502028800F2028805B
:102A600000202880F820208001202880FE2020805F
:102A700000202880022028802020208036202080EE
:102A8000082028803A202080552028802B20208074
:102A9000002028802880012028803F20288014E002
:102AA000000C0140001401400018014000200140CA
:102AB00028010020FE07006C204C43442049443A82
:102AC00025780D0A000000000EE02A20208000205A
:102AD0002880288001202880DF202880782003F0AB
:102AE00045FB292001F02DBC58457DD1ED202080EB
:102AF00001202880FE202880EE202080DE202880F3
:102B000021202880F120208001202880DF202080C3
:102B100010202880C42020808F202880C62020807C
:102B200000202880E220288028802880BF20208064
:102B3000AA202880B02020800D2028800020288016
:102B40000D20288000202880112028800020288047
:102B5000192028800020288021202880002028801B
:102B60002D202880002028803D20288000202880DB
:102B70005D202880002028805D202880002028807B
:102B8000B120208080202880002028808B20288071
:102B9000002028809620288000202880B2202080D5
:102BA0000020288028800220288000202880032000
:102BB000288000202880B3202080002028802880C2
:102BC00028802880288028802880288028802880C5
:102BD00028802880288028802880288028802880B5
:102BE00028802880288000E0FEE328802880288034
:102BF000B42020808B2028800020288096202880E8
:102C000000202880A120288000202880B520208056
:102C1000022028800020288003202880002028808F
:102C20000420288000202880B620208000202880D2
:102C30002880B72020800020288028803F202880FE
:102C4000002028805E2028800020288064202880A2
:102C5000002028808C20288000202880AC2028801C
:102C600000202880DC2028800020288070202880F8
:102C7000002028809020288000202880EB202880B9
:102C800000202880DC20288000202880B820208098
:102C9000002028802880288028802880288028807C
:102CA0002880BA20208024202880002028802880A6
:102CB0002880C120208020202880002028805420C7
:102CC000288000202880FF20288000202880C22023
:102CD00020800A20288000202880042028800020CE
:102CE0002880C32020803C202880002028803A2093
:102CF0002880002028803920288000202880372044
:102D00002880002028803C20288000202880362031
:102D100028800020288032202880002028802F2032
:102D20002880002028802C2028800020288029202E
:102D30002880002028802620288000202880242029
:102D4000288000202880242028800020288023201C
:102D50002880002028803C202880002028803620E1
:102D600028800020288032202880002028802F20E2
:102D70002880002028802C202880002028802920DE
:102D800028800020288026202880002028802420D9
:102D900028800020288024202880002028802320CC
:102DA000288000202880C4202080622028800020E5
:102DB000288005202880002028808420288000206A
:102DC0002880F020288000202880182028800020DB
:102DD0002880A42028800020288018202880002017
:102DE000288050202880002028800C202880002067
:102DF0002880172028800020288095202880002007
:102E00002880F320288000202880E62028800020C9
:102E10002880C5202080322028800020288044205F
:102E200028800020288065202880002028807620A7
:102E30002880002028808820288000202880C62024
:102E40002080202028800020288017202880002033
:102E500028800120288000202880C7202080002092
:102E60002880288028802880C82020800020288072
:102E7000288028802880C920208000202880288061
:102E80002880288028802880288028802880288002
:102E9000288028802880288028802880E0202080A2
:102EA00016202880002028801C20288000202880D0
:102EB000212028800020288036202880002028809B
:102EC000462028800020288052202880002028804A
:102ED00064202880002028807A20288000202880F4
:102EE0008B2028800020288099202880002028809E
:102EF000A820288000202880B92028800020288051
:102F0000C420288000202880CA2028800020288013
:102F1000D220288000202880D920288000202880E6
:102F2000E020288000202880F320288000202880AE
:102F3000E120208016202880002028801C20288066
:102F40000020288022202880002028803620288009
:102F500000202880452028800020288052202880BA
:102F60000020288064202880002028807A20288063
:102F7000002028808B20288000202880992028800D
:102F800000202880A820288000202880B9202880C0
:102F900000202880C420288000202880CA20288083
:102FA00000202880D220288000202880D820288057
:102FB00000202880E020288000202880F32028801E
:102FC00000202880E2202080052028800020288002
:102FD0000B202880002028801B20288000202880AB
:102FE0003420288000202880442028800020288049
:102FF0004F20288000202880612028800020288001
:10300000792028800020288088202880002028809F
:103010009720288000202880A62028800020288053
:10302000B720288000202880C22028800020288007
:10303000C720288000202880D120288000202880D8
:10304000D620288000202880DD20288000202880AD
:10305000F320288000202880E3202080052028807D
:10306000002028800A202880002028801C2028801A
:1030700000202880332028800020288044202880B9
:10308000002028805020288000202880622028806E
:103090000020288078202880002028808820288010
:1030A000002028809720288000202880A6202880C3
:1030B00000202880B720288000202880C220288077
:1030C00000202880C720288000202880D120288048
:1030D00000202880D520288000202880DD2028801E
:1030E00000202880F320288000202880E4202080F1
:1030F00001202880002028800120288000202880AE
:1031000002202880002028802A2028800020288073
:103110003C202880002028804B2028800020288008
:103120005D202880002028807420288000202880AE
:103130008420288000202880932028800020288058
:10314000A220288000202880B3202880002028800A
:10315000BE20288000202880C420288000202880CD
:10316000CD20288000202880D3202880002028809F
:10317000DD20288000202880F3202880002028805F
:10318000E5202080002028802880288028800220B8
:1031900028800020288029202880002028803C20AA
:1031A0002880002028804B202880002028805D2057
:1031B00028800020288074202880002028808420F7
:1031C0002880002028809320288000202880A220AA
:1031D000288000202880B320288000202880BE205E
:1031E000288000202880C420288000202880CD202E
:1031F000288000202880D320288000202880DC2000
:10320000288000202880F320288000202880E620C5
:103210002080112028800020288034202880002051
:1032200028805620288000202880762028800020B2
:103230002880772028800020288066202880002091
:10324000288088202880002028809920288000203D
:103250002880BB20288000202880992028800020FA
:103260002880662028800020288055202880002083
:103270002880552028800020288045202880002094
:103280002880432028800020288044202880002097
:103290002880E720208032202880002028805520A8
:1032A0002880002028807620288000202880662022
:1032B0002880002028806720288000202880672020
:1032C00028800020288087202880002028809920BE
:1032D000288000202880BB2028800020288099207A
:1032E0002880002028807720288000202880442003
:1032F0002880002028805620288000202880232035
:103300002880002028803320288000202880452025
:10331000288000202880E820208000202880288025
:10332000992028800020288087202880002028805D
:10333000882028800020288077202880002028806E
:10334000662028800020288088202880002028806F
:10335000AA20288000202880BB20288000202880E8
:10336000992028800020288066202880002028803E
:103370005520288000202880552028800020288083
:103380004420288000202880442028800020288095
:103390005520288000202880E9202080AA2028802D
:1033A00000202880288028802080AA202880CF2004
:1033B000208000202880288028802880288028805D
:1033C00028802880288028802880288028802880BD
:1033D000288028802880F02020800020288050200D
:1033E00028800020288000E02CE028802880F3201E
:1033F000208000202880F9202080062028801020AE
:10340000288029202880002028803A2020805520EC
:10341000288011202080642002F0A8FE292020802E
:10342000352020800020288051202080FF20288007
:10343000532020802C202880552020808220288026
:103440002C20FCE3B8427DD14FF47043552118463F
:1034500002F0BAFA4FF20105AA21284602F0B4FAA6
:103460006E1C5221304602F0AFFAAF1C08213846DC
:1034700002F0AAFA4FF204090121484602F0A4FA28
:103480000D214FF4304002F09FFA0D214BF2010064
:1034900002F09AFA0D214BF2020002F095FA4FF475
:1034A000364A3421504602F08FFA34214BF2016043
:1034B00002F08AFA34214BF2026002F085FA4FF4EE
:1034C000314B0D21584602F07FFA0D214BF20110CD
:1034D00002F07AFA0D214BF2021002F075FA342153
:1034E0004FF4374002F070FA34214BF2017002F0D1
:1034F0006BFA34214BF2027002F066FA00214FF4AD
:10350000324002F061FA00214BF2012002F05CFA35
:1035100000214BF2022002F057FA24214FF43840E8
:1035200002F052FA24214BF6010002F04DFA242158
:103530004BF6020002F048FA01214FF43F4002F03E
:1035400043FA00E0FEE30F214FF4334002F03CFA6F
:103550000F214BF2013002F037FA0F214BF202300B
:1035600002F032FA34214FF4394002F02DFA3421BE
:103570004BF6011002F028FA34214BF6021002F04B
:1035800023FA08214FF4354002F01EFA08214BF2CD
:10359000015002F019FA08214BF2025002F014FA1D
:1035A00003214FF4424002F00FFA24214FF43A4035
:1035B00002F00AFA24214BF6012002F005FA242138
:1035C0004BF6022002F000FA00214FF43C4002F0DA
:1035D000FBF978214BF6014002F0F6F900214BF699
:1035E000024002F0F1F900214FF43D4002F0ECF905
:1035F00078214BF6015002F0E7F900214BF602501A
:1036000002F0E2F900214FF43E4002F0DDF96421BE
:103610004BF6016002F0D8F900214FF4514002F05E
:10362000D3F933214DF2011002F0CEF900214DF211
:10363000021002F0C9F934214DF2031002F0C4F96E
:1036400000214DF2041002F0BFF93A214DF20510AD
:1036500002F0BAF900214DF2061002F0B5F94A2144
:103660004DF2071002F0B0F900214DF2081002F0FF
:10367000ABF95C214DF2091002F0A6F900214DF2E0
:103680000A1002F0A1F981214DF20B1002F09CF911
:1036900000214DF20C1002F097F9A6214DF20D1009
:1036A00002F092F900214DF20E1002F08DF9E521A1
:1036B0004DF20F1002F088F901214DF2101002F0C6
:1036C00083F913214DF2111002F07EF901214DF220
:1036D000121002F079F954214DF2131002F074F92E
:1036E00001214DF2141002F06FF982214DF21510F4
:1036F00002F06AF901214DF2161002F065F9CA21B3
:103700004DF2171002F060F902214DF2181002F08C
:103710005BF900214DF2191002F056F902214DF229
:103720001A1002F051F901214DF21B1002F04CF970
:1037300002214DF21C1002F047F934214DF21D1008
:1037400002F042F902214DF21E1002F03DF967210C
:103750004DF21F1002F038F902214DF2201002F054
:1037600033F984214DF2211002F02EF902214DF29D
:10377000221002F029F9A4214DF2231002F024F9BD
:1037800002214DF2241002F01FF9B7214DF225104D
:1037900002F01AF902214DF2261002F015F9CF219C
:1037A0004DF2271002F010F902214DF2281002F01C
:1037B0000BF9DE214DF2291002F006F902214DF23B
:1037C0002A1002F001F9F2214DF22B1002F0FCF860
:1037D00002214DF22C1002F0F7F8FE214DF22D10CF
:1037E00002F0F2F803214DF22E1002F0EDF8102154
:1037F0004DF22F1002F0E8F803214DF2301002F0E4
:10380000E3F833214DF2311002F0DEF803214DF2DE
:10381000321002F0D9F86D214DF2331002F0D4F8D5
:1038200000214FF4524002F0CFF833214DF2012035
:1038300002F0CAF800214DF2022002F0C5F834214E
:103840004DF2032002F0C0F800214DF2042002F0F6
:10385000BBF83A214DF2052002F0B6F800214DF2F6
:10386000062002F0B1F84A214DF2072002F0ACF830
:1038700000214DF2082002F0A7F85C214DF209204A
:1038800002F0A2F800214DF20A2002F09DF88121F9
:103890004DF20B2002F098F800214DF20C2002F0BE
:1038A00093F8A6214DF20D2002F08EF800214DF282
:1038B0000E2002F089F8E5214DF20F2002F084F885
:1038C00001214DF2102002F07FF813214DF211205A
:1038D00002F07AF801214DF2122002F075F854211D
:1038E0004DF2132002F070F801214DF2142002F085
:1038F0006BF882214DF2152002F066F801214DF29D
:10390000162002F061F8CA214DF2172002F05CF88F
:1039100002214DF2182002F057F800214DF2192033
:1039200002F052F802214DF21A2002F04DF8012166
:103930004DF21B2002F048F802214DF21C2002F04B
:1039400043F834214DF21D2002F03EF802214DF2E1
:103950001E2002F039F867214DF21F2002F034F8E2
:1039600002214DF2202002F02FF884214DF2212077
:1039700002F02AF802214DF2222002F025F8A421BB
:103980004DF2232002F020F802214DF2242002F013
:103990001BF8B7214DF2252002F016F802214DF256
:1039A000262002F011F8CF214DF2272002F00CF86A
:1039B00002214DF2282002F007F8DE214DF22920E5
:1039C00002F002F802214DF22A2001F0FDFFF2215F
:1039D0004DF22B2001F0F8FF02214DF22C2001F0D6
:1039E000F3FFFE214DF22D2001F0EEFF03214DF2F9
:1039F0002E2001F0E9FF10214DF22F2001F0E4FF0D
:103A000003214DF2302001F0DFFF33214DF2312050
:103A100001F0DAFF03214DF2322001F0D5FF6D21D4
:103A20004DF2332001F0D0FF00214FF4534001F05C
:103A3000CBFF33214DF2013001F0C6FF00214DF2E2
:103A4000023001F0C1FF34214DF2033001F0BCFF20
:103A500000214DF2043001F0B7FF3A214DF205305C
:103A600001F0B2FF00214DF2063001F0ADFF4A2116
:103A70004DF2073001F0A8FF00214DF2083001F0AF
:103A8000A3FF5C214DF2093001F09EFF00214DF2B1
:103A90000A3001F099FF81214DF20B3001F094FFC3
:103AA00000214DF20C3001F08FFFA6214DF20D30B8
:103AB00001F08AFF00214DF20E3001F085FFE52173
:103AC0004DF20F3001F080FF01214DF2103001F076
:103AD0007BFF13214DF2113001F076FF01214DF2F1
:103AE000123001F071FF54214DF2133001F06CFFE0
:103AF00001214DF2143001F067FF82214DF21530A3
:103B000001F062FF01214DF2163001F05DFFCA2184
:103B10004DF2173001F058FF02214DF2183001F03C
:103B200053FF00214DF2193001F04EFF02214DF2FA
:103B30001A3001F049FF01214DF21B3001F044FF22
:103B400002214DF21C3001F03FFF34214DF21D30B7
:103B500001F03AFF02214DF21E3001F035FF6721DE
:103B60004DF21F3001F030FF02214DF2203001F004
:103B70002BFF84214DF2213001F026FF02214DF26E
:103B8000223001F021FFA4214DF2233001F01CFF6F
:103B900002214DF2243001F017FFB7214DF22530FC
:103BA00001F012FF02214DF2263001F00DFFCF216E
:103BB0004DF2273001F008FF02214DF2283001F0CC
:103BC00003FFDE214DF2293001F0FEFE02214DF20D
:103BD0002A3001F0F9FEF2214DF22B3001F0F4FE13
:103BE00002214DF22C3001F0EFFEFE214DF22D307E
:103BF00001F0EAFE03214DF22E3001F0E5FE102126
:103C00004DF22F3001F0E0FE03214DF2303001F093
:103C1000DBFE33214DF2313001F0D6FE03214DF2AF
:103C2000323001F0D1FE6D214DF2333001F0CCFE87
:103C300000214FF4544001F0C7FE332100E080E33F
:103C40004DF2014001F0C0FE00214DF2024001F0B2
:103C5000BBFE34214DF2034001F0B6FE00214DF2CF
:103C6000044001F0B1FE3A214DF2054001F0ACFEF6
:103C700000214DF2064001F0A7FE4A214DF2074017
:103C800001F0A2FE00214DF2084001F09DFE5C21F2
:103C90004DF2094001F098FE00214DF20A4001F07A
:103CA00093FE81214DF20B4001F08EFE00214DF27A
:103CB0000C4001F089FEA6214DF20D4001F084FE7A
:103CC00000214DF20E4001F07FFEE5214DF20F4044
:103CD00001F07AFE01214DF2104001F075FE132132
:103CE0004DF2114001F070FE01214DF2124001F041
:103CF0006BFE54214DF2134001F066FE01214DF29E
:103D0000144001F061FE82214DF2154001F05CFE8D
:103D100001214DF2164001F057FECA214DF2174025
:103D200001F052FE02214DF2184001F04DFE00213B
:103D30004DF2194001F048FE02214DF21A4001F007
:103D400043FE00E0FFE201214DF21B4001F03CFE8A
:103D500002214DF21C4001F037FE34214DF21D408E
:103D600001F032FE02214DF21E4001F02DFE6721CE
:103D70004DF21F4001F028FE02214DF2204001F0DB
:103D800023FE84214DF2214001F01EFE02214DF25E
:103D9000224001F019FEA4214DF2234001F014FE4F
:103DA00002214DF2244001F00FFEB7214DF22540D3
:103DB00001F00AFE02214DF2264001F005FECF215E
:103DC0004DF2274001F000FE02214DF2284001F0A3
:103DD000FBFDDE214DF2294001F0F6FD02214DF2FE
:103DE0002A4001F0F1FDF2214DF22B4001F0ECFDF3
:103DF00002214DF22C4001F0E7FDFE214DF22D4055
:103E000001F0E2FD03214DF22E4001F0DDFD102115
:103E10004DF22F4001F0D8FD03214DF2304001F06A
:103E2000D3FD33214DF2314001F0CEFD03214DF29F
:103E3000324001F0C9FD6D214DF2334001F0C4FD67
:103E400000214FF4554001F0BFFD33214DF20150E8
:103E500001F0BAFD00214DF2025001F0B5FD342110
:103E60004DF2035001F0B0FD00214DF2045001F07D
:103E7000ABFD3A214DF2055001F0A6FD00214DF2B7
:103E8000065001F0A1FD4A214DF2075001F09CFDC2
:103E900000214DF2085001F097FD5C214DF20950D0
:103EA00001F092FD00214DF20A5001F08DFD8121BB
:103EB0004DF20B5001F088FD00214DF20C5001F045
:103EC00083FDA6214DF20D5001F07EFD00214DF243
:103ED0000E5001F079FDE5214DF20F5001F074FD17
:103EE00001214DF2105001F06FFD13214DF21150E0
:103EF00001F06AFD01214DF2125001F065FD5421DF
:103F00004DF2135001F060FD01214DF2145001F00B
:103F10005BFD82214DF2155001F056FD01214DF25D
:103F2000165001F051FDCA214DF2175001F04CFD21
:103F300002214DF2185001F047FD00214DF21950B9
:103F400001F042FD02214DF21A5001F03DFD012128
:103F50004DF21B5001F038FD02214DF21C5001F0D2
:103F600033FD34214DF21D5001F02EFD02214DF2A2
:103F70001E5001F029FD67214DF21F5001F024FD74
:103F800002214DF2205001F01FFD84214DF22150FD
:103F900001F01AFD02214DF2225001F015FDA4217D
:103FA0004DF2235001F010FD02214DF2245001F09A
:103FB0000BFDB7214DF2255001F006FD02214DF217
:103FC000265001F001FDCF214DF2275001F0FCFCFD
:103FD00002214DF2285001F0F7FCDE214DF229506C
:103FE00001F0F2FC02214DF22A5001F0EDFCF22129
:103FF0004DF22B5001F0E8FC02214DF22C5001F063
:10400000E3FCFE214DF22D5001F0DEFC03214DF2C8
:104010002E5001F0D9FC10214DF22F5001F0D4FCAC
:1040200003214DF2305001F0CFFC33214DF23150DD
:1040300001F0CAFC03214DF2325001F0C5FC6D21A4
:104040004DF2335001F0C0FC00214FF4564001F016
:10405000BBFC33214DF2016001F0B6FC00214DF2B2
:10406000026001F0B1FC34214DF2036001F0ACFCC0
:1040700000214DF2046001F0A7FC3A214DF20560E9
:1040800001F0A2FC00214DF2066001F09DFC4A21E6
:104090004DF2076001F098FC00214DF2086001F03C
:1040A00093FC5C214DF2096001F08EFC00214DF281
:1040B0000A6001F089FC81214DF20B6001F084FC63
:1040C00000214DF20C6001F07FFCA6214DF20D6045
:1040D00001F07AFC00214DF20E6001F075FCE52143
:1040E0004DF20F6001F070FC01214DF2106001F003
:1040F0006BFC13214DF2116001F066FC01214DF2C1
:10410000126001F061FC54214DF2136001F05CFC7F
:1041100001214DF2146001F057FC82214DF215602F
:1041200001F052FC01214DF2166001F04DFCCA2154
:104130004DF2176001F048FC02214DF2186001F0C9
:1041400043FC00214DF2196001F03EFC02214DF2CA
:104150001A6001F039FC01214DF21B6001F034FCC2
:1041600002214DF21C6001F02FFC34214DF21D6044
:1041700001F02AFC02214DF21E6001F025FC6721AE
:104180004DF21F6001F020FC02214DF2206001F091
:104190001BFC84214DF2216001F016FC02214DF23E
:1041A000226001F011FCA4214DF2236001F00CFC0F
:1041B00002214DF2246001F007FCB7214DF2256089
:1041C00001F002FC02214DF2266001F0FDFBCF213F
:1041D0004DF2276001F0F8FB02214DF2286001F05A
:1041E000F3FBDE214DF2296001F0EEFB02214DF2DE
:1041F0002A6001F0E9FBF2214DF22B6001F0E4FBB3
:1042000002214DF22C6001F0DFFBFE214DF22D600A
:1042100001F0DAFB03214DF22E6001F0D5FB1021F5
:104220004DF22F6001F0D0FB03214DF2306001F020
:10423000CBFB33214DF2316001F0C6FB03214DF27F
:10424000326001F0C1FB6D214DF2336001F0BCFB27
:104250005521184601F0B8FBAA21284601F0B4FB0D
:104260005221304601F0B0FB0821384601F0ACFB8A
:104270000021484601F0A8FBCC21584601F0A4FBE0
:1042800000214BF2011001F09FFB0521504601F087
:104290009BFB70214FF4374001F096FB70214BF2ED
:1042A000017001F091FB01214FF4384001F08CFBCB
:1042B00003214BF6010001F087FB03214BF60200BE
:1042C00001F082FB03214BF6030001F07DFB02218C
:1042D0004FF43C4001F078FB00214BF6014001F027
:1042E00073FB00214BF6024001F06EFBD0214FF42E
:1042F000494001F069FB02214CF6011001F064FB1A
:1043000050214CF6021001F05FFB50214CF60310D7
:1043100001F05AFB50214CF6041001F055FB00212E
:104320004FF4545001F050FB55214FF4685001F008
:104330004BFB4FF488502080782001F033FF4FF47E
:1043400024502080FEE3A0F513414FF4E06940F2D1
:10435000022A4FF4274B25392ED0A0F5134140F205
:10436000077728397ED0A0F513414FF4887B203998
:1043700079D0A0F51341313976D0A0F5A84108399C
:1043800073D0A0F5A8514FF4407B05396ED0A0F54D
:10439000354105396BD0A0F54541053968D0A0F508
:1043A0008A4131397ED0A0F58A4135397BD0A0F5DC
:1043B000C851633978D0C5E747F6F001E52001F030
:1043C00003FB3146012001F0FFFA4946022001F0CB
:1043D000FBFA41F23001032001F0F6FA002104203B
:1043E00001F0F2FA5146082001F0EEFA002109200E
:1043F00001F0EAFA00210A2001F0E6FA00210C207F
:1044000001F0E2FA00210D2001F0DEFA00210F2078
:1044100001F0DAFA0021102001F0D6FA072111206C
:1044200001F0D2FA0021122001F0CEFA002113206F
:1044300001F0CAFA0021072001F0C6FA41F29061AA
:10444000102001F0C1FA40F22721112001F0BCFA3E
:104450009D21122001F0B8FA4FF4C851132001F049
:10446000B3FA06E080E03CE1E1E1B7E253E3FDE3CB
:10447000FDE32521292001F0A7FA0D212B2001F0D1
:10448000A3FA0721302001F09FFA40F203313120D6
:1044900001F09AFA0321322001F096FA40F2062147
:1044A000352002E0FEE3FEE3FEE301F08DFA082191
:1044B000362001F089FA40F20641372001F084FAF3
:1044C0004FF44171382001F07FFA0721392001F0C3
:1044D0007BFA40F202613C2001F076FA08213D208F
:1044E00001F072FA0021502001F06EFAEF21512004
:1044F00001F06AFA0021522001F066FA40F23F1101
:10450000532001F061FA5946602001F05DFA012163
:10451000612001F059FA00216A2001F055FA0021CA
:10452000802001F051FA0021812001F04DFA002194
:10453000822001F049FA0021832001F045FA002190
:10454000842001F041FA0021852001F03DFA10217C
:10455000902001F039FA4FF4C061922001F034FA52
:1045600040F233110720FDE341F28F01EC2001F00E
:104570002BFA41F23421EF2001F026FA31460120D6
:1045800001F022FA4946022001F01EFA41F2300100
:10459000032001F019FA0021042001F015FA514618
:1045A000082001F011FA0021092001F00DFA002184
:1045B0000A2001F009FA01210C2001F005FA00217E
:1045C0000D2001F001FA00210F2001F0FDF900217A
:1045D000102001F0F9F90721112001F0F5F900216F
:1045E000122001F0F1F90021132001F0EDF9012171
:1045F000072001F0E9F9322001F0B8FD41F29041C5
:10460000102001F0E1F940F22721112001F0DCF93E
:10461000322001F0ABFD8A21122001F0D5F93220C1
:1046200001F0A4FD4FF4D051132001F0CDF9062183
:10463000292001F0C9F90D212B2001F0C5F9322004
:1046400001F094FD0021202001F0BEF9002121207D
:1046500001F0BAF9322001F089FD0021302001F08B
:10466000B3F940F20461312001F0AEF940F20531B6
:10467000322001F0A9F90021352001F0A5F940F61A
:104680000941362001F0A0F94FF40171372001F003
:104690009BF940F20131382001F096F93946392072
:1046A00001F092F900213C2001F08EF940F60A2138
:1046B0003D2001F089F9322001F058FD0021502001
:1046C00001F082F9EF21512001F07EF90021522002
:1046D00001F07AF940F23F11532001F075F9594683
:1046E00051E10021084601F06FF93146012001F047
:1046F0006BF94946022001F067F941F230010320CD
:1047000001F062F90021042001F05EF95146082011
:1047100001F05AF90021092001F056F900210A2080
:1047200001F052F901210C2001F04EF900210D2079
:1047300001F04AF900210F2001F046F9322001F082
:1047400015FD40F20111072001F03EF9322001F081
:104750000DFD4FF48651102001F036F9072111208C
:1047600001F032F95B465946122001F02DF94FF461
:104770003061132001F028F90021292001F024F9EB
:1047800044F210012B2001F01FF90021502001F00C
:104790001BF9EF21512001F017F90021522001F0FF
:1047A00013F940F23F11532001F00EF94FF41C5160
:1047B000602001F009F90121612001F005F90021D3
:1047C0006A2001F001F90021802001F0FDF80021AC
:1047D000812001F0F9F80021822001F0F5F8002194
:1047E000832001F0F1F80021842001F0EDF8002190
:1047F000852001F0E9F81021902001F0E5F8002172
:10480000922001F0E1F80121932001F0DDF8194632
:10481000952001F0D9F80021972001F0D5F800216A
:10482000982001F0D1F840F27311072086E341F29D
:104830001401E72001F0C8F83146012001F0C4F866
:104840004FF40071022001F0BFF841F2380103205B
:1048500001F0BAF85146082001F0B6F8002109200D
:1048600001F0B2F800210A2001F0AEF800210C207E
:1048700001F0AAF800210D2001F0A6F800210F2078
:1048800001F0A2F80021102001F09EF8072111206C
:1048900001F09AF80021122001F096F8002113206F
:1048A00001F092F8C82001F061FC41F29061102003
:1048B00001F08AF840F22721112001F085F832201A
:1048C00001F054FC0C21122001F07EF8322001F09E
:1048D0004DFC4FF40061132001F076F811212920DE
:1048E00001F072F80B212B2001F06EF8322001F05C
:1048F0003DFC0021202001F067F840F23F131946EB
:10490000212001F061F80021302001F05DF84FF422
:1049100083742146312001F057F80021322001F044
:1049200053F84FF40171352001F04EF841F20A615D
:10493000362001F049F83946372001F045F8214684
:10494000382001F041F83946392001F03DF840F2B5
:1049500002413C2001F038F840F60F413D2001F0C3
:1049600033F80021502001F02FF8EF21512001F001
:104970002BF80021522001F027F81946532001F0AE
:1049800023F84FF41C51602001F01EF80121612032
:1049900001F01AF800216A2001F016F800218020A9
:1049A00001F012F80021812001F00EF80021822090
:1049B00001F00AF80021832001F006F8002184208C
:1049C00001F002F80021852000F0FEFF1021902068
:1049D00000F0FAFF4FF4C0619220FDE33146012060
:1049E00000F0F2FF4946022000F0EEFF41F23001F4
:1049F000032000F0E9FF0021042000F0E5FF40F271
:104A00000721082000F0E0FF0021092000F0DCFF72
:104A100000210A2000F0D8FF00210C2000F0D4FF74
:104A200000210D2000F0D0FF00210F2000F0CCFF6E
:104A3000142001F09BFB41F2B061102000F0C4FF94
:104A40000121112000F0C0FF0121172000F0BCFF60
:104A50004FF49C71122000F0B7FF4FF40061132057
:104A600000F0B2FF0921292000F0AEFF09212A2021
:104A700000F0AAFF0021A42000F0A6FF0021502092
:104A800000F0A2FFEF21512000F09EFF00215220F4
:104A900000F09AFF40F23F11532000F095FF4FF4D1
:104AA0001C51602000F090FF0121612000F08CFF7C
:104AB00000216A2000F088FF0021802000F084FFA0
:104AC0000021812000F080FF0021822000F07CFF87
:104AD0000021832000F078FF0021842000F074FF83
:104AE0000021852000F070FF1321902000F06CFF62
:104AF0000021922000F068FF0321932000F064FF62
:104B00005946952000F060FF40F27311072000F035
:104B10005BFF322011E10021072000F055FF322019
:104B200001F024FB4FF48E71122000F04DFF0121A3
:104B3000A42000F049FF0F21082000F045FF0821C4
:104B40000A2000E07BE300F03FFF08210D2000F089
:104B50003BFF3946302000F037FF0721312000F0BD
:104B600033FF40F20361322000F02EFF4C464946ED
:104B7000332000F029FF5146342000F025FF0221A8
:104B8000352000F021FF41F60F71362000F01CFFA8
:104B90003946372000F018FF0021382000F014FFBC
:104BA0000021392000F010FF39463A2000F00CFFB8
:104BB00000213B2000F008FF07213C2000F004FF0B
:104BC00000213D2000F000FF322001F0CFFA01214A
:104BD000072000F0F9FE0121172000F0F5FE322039
:104BE00001F0C4FA4FF4BD51102000F0EDFE40F288
:104BF0001721112000F0E8FE4FF48F71122000F011
:104C0000E3FE4FF47061132000F0DEFE00212A2045
:104C100000F0DAFE0A21292000F0D6FE4FF49F7141
:104C2000122000F0D1FE0021502000F0CDFEEF2137
:104C3000512000F0C9FE0021522000F0C5FE40F2D4
:104C40003F11532000F0C0FE4FF41C51602000F0D3
:104C5000BBFE0121612000F0B7FE00216A2000F0B8
:104C6000B3FE0021802000F0AFFE01E068E066E1C5
:104C70000021812000F0A8FE0021822000F0A4FE87
:104C80000021832000F0A0FE0021842000F09CFE83
:104C90000021852000F098FE1321902000F094FE62
:104CA000594602E015E2CBE272E3922000F08CFE5E
:104CB0000521932000F088FE0021952000F084FE5D
:104CC0000021972000F080FE0021982000F07CFE5B
:104CD0003146012000F078FE2146022000F074FEEB
:104CE00041F23801032000F06FFE0021042000F0A3
:104CF0006BFE00210C2000F067FE00210F2000F069
:104D000063FE0021202000F05FFE0021212000F042
:104D10005BFE2121072000F057FE142001F026FA47
:104D20006121072000F050FE142001F01FFA40F22C
:104D30007311072000F048FE142001F017FAA1E3D8
:104D40000021084600F040FE0021084600F03CFE2D
:104D50000021084600F038FE0021084600F034FE2D
:104D6000012100E0E6E0A42000F02EFE142001F076
:104D7000FDF94FF41C542146602000F025FE5546F5
:104D80005146082000F020FE4FF40571302000F05D
:104D90001BFE43F21571312000F016FE40F2046153
:104DA000322000F011FE40F61661332000F00CFEB8
:104DB00042F21121342000F007FE4FF4A8513520B3
:104DC00000F002FE48F20751362000F0FDFD41F2EE
:104DD0000741372000F0F8FD41F20341382000F090
:104DE000F3FD2021392000F0EFFD1A21902000F082
:104DF000EBFD0021102000F0E7FD0721112000F05D
:104E0000E3FD0021122000F0DFFD0021132000F05F
:104E1000DBFD142001F0AAF94FF4E661102000F048
:104E2000D3FD40F23711112000F0CEFD142001F027
:104E30009DF94FF4DC71122000F0C6FD142001F042
:104E400095F94FF47061132000F0BEFD80212A20F7
:104E500000F0BAFD4821292000F0B6FD142001F031
:104E600085F93146012000F0AFFD4946022000F0EF
:104E7000ABFD41F23801032000F0A6FD29460820D1
:104E800000F0A2FD00210A2000F09EFD00210C2070
:104E900000F09AFD00210D2000F096FD30210E203B
:104EA00000F092FD0021502000F08EFDEF215120F6
:104EB00000F08AFD0021522000F086FD40F23F11F3
:104EC000532000F081FD2146602000F07DFD01218E
:104ED000612000F079FD00216A2000F075FD1121AC
:104EE000902000F071FD4FF4C061922000F06CFD45
:104EF00040F20241932000F067FD0221942000F06F
:104F000063FD142001F032F90121072000F05CFD5F
:104F1000142001F02BF96121072000F055FD40F22B
:104F20007311072000F050FD0021202000F04CFDFF
:104F30000021212000F048FD222100207DE10021F8
:104F4000084600F041FD0021084600F03DFD142018
:104F500001F00CF90021084600F036FD002108465A
:104F600000F032FD0021084600F02EFD0021084629
:104F700000F02AFD0121A42000F026FD142001F0FC
:104F8000F5F84FF41C51602000F01EFD40F60601BC
:104F9000082000F019FD40F203731946302000F09C
:104FA00013FD0121312000F00FFD0421322000F01B
:104FB0000BFD4FF48171332000F006FD5C4659462D
:104FC000342000F001FD40F20311352000F0FCFC1C
:104FD0001F21362000F0F8FC1946372000F0F4FCC1
:104FE0000121382000F0F0FC0421392000F0ECFC15
:104FF0001521902000F0E8FC4FF48261102000F0B1
:10500000E3FC40F24721112000F0DEFC4FF4DE719A
:10501000122000F0D9FC4FF46061132000F0D4FCA2
:10502000782001F0A3F83146012000F0CDFC4FF4C8
:105030000071022000F0C8FC41F23001032000F0B2
:10504000C3FC08210A2000F0BFFC00210C2000F066
:10505000BBFC20210E2000F0B7FC00210F2000F047
:10506000B3FC0021202000F0AFFC0021212000F043
:10507000ABFC3D212A2000F0A7FC142001F076F8BB
:105080002D21292000F0A0FC0021502000F09CFCE4
:105090004DF2EF01512000F097FC0021522000F06A
:1050A00093FC40F23F11532000F08EFC0021612060
:1050B00000F08AFC00216A2000F086FC2146922044
:1050C00000F082FC0521932000F07EFC3146FFF7C2
:1050D000ACBB0121002000F077FC0A2001F046F86B
:1050E00041F22861102000F06FFC0E21122000F028
:1050F0006BFC40F63921132000F066FC0A2001F019
:1051000035F84021112000F05FFC5021152000F0FF
:105110005BFC0A2001F02AF81E21122000F054FC4A
:105120000A2001F023F84FF4B151102000F04CFC9C
:1051300042F63921132000F047FC0A2001F016F84E
:105140003146012000F040FC5946022000F03CFCB2
:1051500041F23801032000F037FC5146082000F0EE
:1051600033FC08210A2000F02FFC0021302000F041
:105170002BFC40F20241312000F026FC4FF48371F9
:10518000322000F021FC40F20351332000F01CFCDF
:105190004FF48271342000F017FC40F201313520C9
:1051A00000F012FC3946362000F00EFC40F20531CA
:1051B000372000F009FC4FF40271382000F004FCA5
:1051C00040F60B71392000F0FFFB0221412000F076
:1051D000FBFB4FF41C5100E0D5E0602000F0F4FB35
:1051E0000121612000F0F0FB4FF40471902000F0E9
:1051F000EBFB4FF48571922000F0E6FB0421932035
:1052000000F0E2FB3146A02000F0DEFB0121072088
:1052100000F0DAFB2121072000F0D6FB2321072034
:1052200000F0D2FB3321072000F0CEFB40F2331117
:10523000072000F0C9FB0021A02000F0C5FB21E100
:105240003021152000F0C0FB10219A2000F0BCFB9B
:105250002021112000F0B8FB43F22841102000F07B
:10526000B3FB0221122000F0AFFB41F23801132002
:1052700000F0AAFB282000F079FF1221084600F078
:10528000A3FB282000F072FF43F22041102000F021
:105290009BFB43F23801132000F096FB462000F000
:1052A00065FF0021302000F08FFB40F202413120E9
:1052B00000F08AFB40F20731322000F085FB4FF40A
:1052C0004171332000F080FB0421342000F07CFB8E
:1052D00040F20141352000F077FB3946362000F0DE
:1052E00073FB40F20531372000F06EFB4FF4C263D0
:1052F0001946382000F068FB1946392000F064FB9D
:105300003146012000F060FB5946022000F05CFBB2
:1053100041F23001032000F057FB40F6080108205D
:1053200000F052FB08210A2000F04EFB4FF41C5104
:10533000602000F049FB0121612000F045FB4FF4A3
:105340009F71902000F040FB3146922000F03CFB22
:105350003146932000F038FB4FF44051A02000F07C
:1053600033FB1021A32000F02FFB0121072000F0C8
:105370002BFB2121072000F027FB2321072000F031
:1053800023FB3321072000F01FFB40F233119EE680
:10539000E22020801D2028800220288004202880F0
:1053A000642000F0FFFEE0202080012028800A20F9
:1053B00000F0DCFEE0202080032028800C2000F09C
:1053C000D5FE012020800A2000F0D0FEE6202080BB
:1053D0002F202880FF2028802880B02020802020B7
:1053E0002880002028800320288040F21F30288059
:1053F0000120288040F2DF10288000202880B4207F
:1054000020800420288040F21F402880002028802F
:105410002E20288000202880288028802880B62000
:105420002080022028804FF40370288000202880EC
:105430001720288015202880002028802880F02030
:1054400020800320288029202080D0202080002058
:105450002880BE20208005202880FE202880012072
:1054600028800020288028802880B82020800320E1
:10547000288001202880BA202080012028806420F4
:1054800000F02EF80020FCF70FFF05490120C1F8BD
:1054900080014046FCF7D2FE1FB0BDE8F08F00004F
:1054A000008021420346012000E05843491EC9B252
:1054B000FBD27047034808B50088ADF80000BDF87E
:1054C000000008BD0008006C044910B508800520E4
:1054D00000F068FEBDE81040FFF7ECBFFE07006C6F
:1054E0000C4A10B5BE211180941C0521218002F0C8
:1054F000D6FF4FF06632084B02F0E4FF02F0A2FF45
:10550000208001202080FF2020800020208020801B
:1055100010BD0000FE07006C66660440F0B5674EE3
:1055200000233146B279898846F6040741F66314B0
:10553000012A01D02AB11DE0B9421BD0A14202D1FB
:1055400018E0A14216D1082814D2DFE800F00406C2
:10555000080A0C0E101206200CE007200AE00420B6
:1055600008E0052006E0012004E0002002E003201E
:1055700000E00220A1F5134C45F2103245F210551F
:10558000BCF1410C07D0B94205D0914203D0A942E9
:1055900001D0A14275D1082812D2DFE800F0110431
:1055A00006080A0C0E1080230AE0402308E0C023FE
:1055B00006E0202304E0602302E0A02300E0E023D3
:1055C000A94202D14FF4585000E03620914205D054
:1055D000A94203D0A14201D043F00803B94201D14E
:1055E00043F00203194600F0EFF9B288A2420AD054
:1055F00098063088718802D5884202D303E0884239
:1056000001D9318070802E48811CAA4272890280A3
:1056100021D100230B80531C038000230B80931C9B
:10562000038033885B1E1C0A0C80D21C0280DAB215
:105630000A80B289028000230B80531C0380002360
:105640000B80931C038073885B1E1C0A0C80D21C89
:105650000280D8B212E000220A800A803288521EEC
:10566000130A0B80D2B20A80B2890280002008801F
:1056700008807088401E020A0A80C0B20880F0BD0F
:10568000FFE7082812D2DFE800F0040608110A0C30
:105690000E1030230AE0102308E0202306E0382310
:1056A00004E0282302E0182300E00823BDE8F040CE
:1056B000032043F4805100F087B900002801002046
:1056C000FE07006C2DE9F04F4E4F0B463A46BD8861
:1056D0000C0ADFF834B191895289A5F513464FEAD7
:1056E000102C0BF1020A413E1DD0A5F5A646103E36
:1056F00019D03E46BE4696F806903688A5F5D047A6
:10570000A6EB0008A8F10108043F17D0A5F5C8577B
:10571000633F28D0A5F5AA477646103F51D0B9F18E
:10572000010F63D064E0ABF800205246AAF800C035
:10573000C0B2AAF80000ABF800100FE0B9F1010FF9
:1057400001D11FFA88F0ABF80020050A5246AAF8EA
:105750000050C0B2AAF80000ABF800101480D8B214
:105760001080BDE8F08FB9F1000F1BD0ABF800201E
:105770005246AAF800C0C0B2AAF80000761E300A4D
:10578000AAF80000F0B21080ABF8001011461480A7
:10579000D8B21080BEF80200401E020A0A80C0B2D1
:1057A0000880DEE71FFA88F0ABF80020002652469A
:1057B000AAF80060AAF80060060AAAF80060C0B261
:1057C000E1E7ABF80020AAF800C0521CABF80020BB
:1057D000C0B2AAF80000ABF80010AAF80040491CBB
:1057E000ABF80010D8B2AAF80000BAE71FFA88F0A8
:1057F0000146104600F0E8F8B089BDE8F04F1946C0
:1058000000F0E2B828010020FE07006C2DE9F84FF7
:1058100082461F460C468B46580700D0012000EBFD
:10582000D70079084843203AC0B202F0FF090026A9
:10583000009041E00C2F10D0102F12D0182F3ED125
:10584000204909EBC90001EB80004FF00008855D9D
:1058500028060AD51C4802880BE009EB49001B49C1
:10586000F1E71B4901EB0910EFE70A9828B9164840
:10587000428821465046FCF727FE6806050E15486B
:10588000641CA4B24088A04219D9A4EB0B00B84212
:1058900009D10AF101001FFA80FA0E485C4601881E
:1058A00051450CD906E008F1010000F0FF08B8F1FD
:1058B000080FCDD3761CF6B200988642BAD3BDE865
:1058C000F88F0000579500086C000020F38A00084C
:1058D000678F0008280100202DE9F84F044600F0EA
:1058E000FF0810190D46DDE90A761FFA80FA5819EB
:1058F0001FFA80F94FF0000B11E0544502D3E8196C
:10590000444685B24D450FD23B4629462046CDF848
:1059100000B0FFF77BFF04EB570084B2761C3278AF
:10592000A2F120005E28E8D9BDE8F88F2DE9FF4FED
:1059300081B08046DDF83CA00E984FF000091F466C
:1059400093464C460AF0010546082BE0381B401EE2
:10595000C1B20A20FFF7A6FDBBFBF0F00A21B0FBA5
:10596000F1F201FB1200B9F1000F05D1791E8C4252
:1059700002DA48B14FF001093030C2B206FB0480B0
:1059800080B200950E9B08E05FEA0A6006FB048087
:105990000E9B80B200950AD530220299FFF736FFA0
:1059A000641CE4B2BC42D1D305B0BDE8F08F202224
:1059B000F3E70000024803490089088070470000AF
:1059C00028010020FE07006C024A1080901C018014
:1059D00070470000FE07006C38B50121482000F038
:1059E00009F92024ADF8004010208DF803000320B1
:1059F0000B4D8DF8020069462846FCF7F3F920218B
:105A00002846FCF746FAADF80040064C69462046A9
:105A1000FCF7E8F920212046FCF73BFA38BD0000EE
:105A2000000C014000180140FEE7704730B50F231D
:105A3000C27801780125F2B1144A126801F1E0211F
:105A400002F4E062C2F5E062120AC2F10404D3403B
:105A50004278A24084781C401443220181F800243B
:105A6000007800F01F018D404009800000F1E02027
:105A7000C0F8005130BD01F01F008540480980008A
:105A800000F1E020C0F8805130BD00000CED00E0D6
:105A90000249084302490860704700000000FA0507
:105AA0000CED00E02DE9FC41374D4FF0800810244B
:105AB00068780323401CC2B26A70CDE900486F21A8
:105AC000BE20FFF733FF68780E21B0FBF1F201FB37
:105AD000120005F1200140F2391331F82000E922CB
